:100000000EC028C027C026C025C07DC023C022C086
:1000100022C020C01FC01EC000C11CC01BC01124B4
:100020001FBECFE5D2E0DEBFCDBF10E0A0E6B0E05E
:10003000E4E9F4E002C005900D92AC38B107D9F7BD
:1000400010E0ACE8B0E001C01D92A639B107E1F7BD
:1000500052D11EC2D5CF1F920F920FB60F9211240C
:100060002F933F934F935F936F937F938F939F93C0
:10007000AF93BF9344B155B120918F003091900060
:10008000952F80E0842B820F931F90939000809394
:100090008F008091910090919200892B49F480917A
:1000A0008F0090919000039790939200809391001D
:1000B00080918E008F5F80938E0080918E008431BE
:1000C00098F080918F009091900064E170E08FD162
:1000D00063507109709392006093910010929000A8
:1000E00010928F0010928E00BF91AF919F918F91CF
:1000F0007F916F915F914F913F912F910F900FBE24
:100100000F901F9018951F920F920FB60F92112407
:100110002F935F936F937F938F939F93AF93BF932F
:1001200080918D008F5F80938D0080916000823080
:1001300069F08330E9F0882309F456C082E08093A7
:10014000600010BEC19A10928C0058C080918C0043
:100150008F5F80938C0080918C00813208F44EC0B8
:1001600083E0809360008FEF8EBD81ED80BF46C03D
:1001700080919100909192008C32914038F41092CD
:100180009400109293001092600028C0809191001A
:10019000909192008B34914038F08FEF90E09093E3
:1001A0009400809393001AC08091910090919200E6
:1001B00088519148880F991F9093940080939300E1
:1001C00080919300909194006FEF70E0FED064E610
:1001D00070E00DD170939400609393008091930030
:1001E000909194008EBD0AC08091910090919200F0
:1001F0008F32914018F081E0809360008FED86B9D6
:10020000BF91AF919F918F917F916F915F912F914E
:100210000F900FBE0F901F9018951F920F920FB660
:100220000F9211240F900FBE0F901F901895C49835
:1002300085E48A95F1F7000089E00AC060FF02C0FA
:10024000C49A01C0C498669595E49A95F1F70000A8
:100250008150A1F7C49A85E48A95F1F7000095E4EE
:100260009A95F1F7000008950F931F93CF93DF93B2
:100270008C01EB0102C0C801DADF69916111FBCF8B
:10028000DF91CF911F910F910895CF92DF92EF925E
:10029000FF92CF93DF93EC016A017B0177FF0AC0E5
:1002A000F094E094D094C094C11CD11CE11CF11CCA
:1002B0006DE2BDDF8AE0C816D104E104F1045CF010
:1002C000C701B6012AE030E040E050E0A4D0BA0116
:1002D000A901CE01DADFC701B6012AE030E040E033
:1002E00050E099D0605DCE01DF91CF91FF90EF900B
:1002F000DF90CF909CCF14BE8DE188BB82E187BB9D
:100300001ABC85E083BF82E089BF8FE887B98FED93
:1003100086B988E181BD8FE481BD85B7877E85BFC1
:1003200085B7806285BF7894C49A6CE085E990E0D7
:100330007EDF6CE085E990E07ADF17E48895A89588
:1003400011BD80918D008132C8F310928D00C09153
:100350009100D091920063E670E085E990E084DF3F
:10036000AE014D5F5F4F60E070E085E990E08DDFAA
:100370006AE670E085E990E077DF40919100509166
:10038000920060E070E085E990E07FDF60E770E078
:1003900085E990E069DF40919100509192004351CE
:1003A000514060E070E085E990E06FDF64E770E065
:1003B00085E990E059DF409193005091940060E00E
:1003C00070E085E990E061DFB9CF5527002480FF18
:1003D00002C0060E571F660F771F6115710521F0C9
:1003E00096958795009799F7952F802D0895AA1BCC
:1003F000BB1B51E107C0AA1FBB1FA617B70710F010
:10040000A61BB70B881F991F5A95A9F78095909541
:10041000BC01CD010895052E97FB16F4009406D07B
:1004200057FD0CD013D007FC09D07EF49095809531
:10043000709561957F4F8F4F9F4F089550954095D0
:10044000309521953F4F4F4F5F4F0895A1E21A2EEF
:10045000AA1BBB1BFD010DC0AA1FBB1FEE1FFF1F68
:10046000A217B307E407F50720F0A21BB30BE40BB8
:10047000F50B661F771F881F991F1A9469F76095FF
:100480007095809590959B01AC01BD01CF010895B9
:04049000F894FFCF0E
:10049400017A000D0A4144433A002041444A3A009B
:1004A40020543A002050574D3A003031323334351D
:0C04B400363738394142434445460000C9
:00000001FF
