:100000000EC028C027C026C025C07DC023C022C086
:1000100022C020C01FC01EC0D8C01CC01BC01124DD
:100020001FBECFE5D2E0DEBFCDBF10E0A0E6B0E05E
:10003000E8E2F4E002C005900D92A039B107D9F7CB
:1000400010E0A0E9B0E001C01D92A939B107E1F7C5
:100050002AD1E8C1D5CF1F920F920FB60F9211246B
:100060002F933F934F935F936F937F938F939F93C0
:10007000AF93BF9344B155B1209194003091950056
:10008000952F80E0842B820F931F9093950080938F
:1000900094008091960090919700892B49F480916B
:1000A0009400909195000397909397008093960009
:1000B000809193008F5F80939300809193008431AF
:1000C00098F0809194009091950064E170E059D18E
:1000D0006350710970939700609396001092950099
:1000E0001092940010929300BF91AF919F918F91C5
:1000F0007F916F915F914F913F912F910F900FBE24
:100100000F901F9018951F920F920FB60F92112407
:100110002F938F939F93809192008F5F8093920093
:1001200080916000823059F08330A1F08823C9F1BA
:1001300082E080936000C09A1092910023C0809169
:1001400091008F5F8093910080919100813298F1AE
:1001500083E02FC080919600909197008C3291405F
:1001600040F488B38E7E88BB10926000109290009D
:1001700022C080919600909197008B34914030F08E
:10018000C09AC49884E68093900015C08091960030
:10019000909197008834914070F4C49AC09882E39B
:1001A000F2CF80919600909197008F32914018F095
:1001B00081E0809360008FED86B99F918F912F91A0
:1001C0000F900FBE0F901F9018951F920F920FB6B1
:1001D0000F9211240F900FBE0F901F901895C39887
:1001E00085E48A95F1F7000089E00AC060FF02C04B
:1001F000C39A01C0C398669595E49A95F1F70000FB
:100200008150A1F7C39A85E48A95F1F7000095E43F
:100210009A95F1F7000008950F931F93CF93DF9302
:100220008C01EB0102C0C801DADF69916111FBCFDB
:10023000DF91CF911F910F910895CF92DF92EF92AE
:10024000FF92CF93DF93EC016A017B0177FF0AC035
:10025000F094E094D094C094C11CD11CE11CF11C1A
:100260006DE2BDDF8AE0C816D104E104F1045CF060
:10027000C701B6012AE030E040E050E096D0BA0174
:10028000A901CE01DADFC701B6012AE030E040E083
:1002900050E08BD0605DCE01DF91CF91FF90EF9069
:1002A000DF90CF909CCF14BE8EE088BB89E187BBE6
:1002B0001ABC85E083BF82E089BF8FE887B98FEDE4
:1002C00086B988E181BD8FE481BD85B7877E85BF12
:1002D00085B7806285BF7894C39A6CE088E990E026
:1002E0007EDF6CE088E990E07ADF17E48895A895D6
:1002F00011BD809192008132C8F310929200C0919A
:100300009600D091970063E670E088E990E084DF82
:10031000AE014D5F5F4F60E070E088E990E08DDFF7
:100320006AE670E088E990E077DF409196005091AE
:10033000970060E070E088E990E07FDF60E770E0C0
:1003400088E990E069DF4091960050919700435111
:10035000514060E070E088E990E06FDF64E770E0B2
:1003600088E990E059DF4091900050E060E070E053
:1003700088E990E062DF6CE770E088E990E04CDFAC
:10038000B5CFAA1BBB1B51E107C0AA1FBB1FA617F5
:10039000B70710F0A61BB70B881F991F5A95A9F72E
:1003A00080959095BC01CD010895052E97FB16F41C
:1003B000009406D057FD0CD013D007FC09D07EF472
:1003C00090958095709561957F4F8F4F9F4F0895C1
:1003D00050954095309521953F4F4F4F5F4F089571
:1003E000A1E21A2EAA1BBB1BFD010DC0AA1FBB1F39
:1003F000EE1FFF1FA217B307E407F50720F0A21BAB
:10040000B30BE40BF50B661F771F881F991F1A9417
:1004100069F760957095809590959B01AC01BD0141
:08042000CF010895F894FFCF0D
:10042800017F000D0A4144433A002041444A3A0002
:1004380020543A002053706565643A002025003046
:100448003132333435363738394142434445460032
:00000001FF
